:100000000C9435000C945D000C945D000C9454012C
:100010000C9487010C94BA010C945D000C945D0063
:100020000C945D000C945D000C945D000C945D00DC
:100030000C945D000C945D000C945D000C945D00CC
:100040000C945D000C945D000C948C000C94CB001F
:100050000C945D000C945D000C945D000C945D00AC
:100060000C946E020C945D008B0311241FBECFEF25
:10007000D4E0DEBFCDBF11E0A0E0B1E0ECEFFAE0EC
:1000800002C005900D92A832B107D9F713E0A8E29B
:10009000B1E001C01D92A739B107E1F710E0CAE64F
:1000A000D0E004C02297FE010E947805C836D1072F
:1000B000C9F70E9416030C947C050C94000001C043
:1000C000000080912F018823D9F380913202982F6C
:1000D0009F5F90933202813049F028F0823049F0DE
:1000E000833079F409C08091300108958091310105
:1000F000089580913201089510922F01809133016B
:1001000008958FEF0895E1ECF0E08081877F808390
:1001100080818061808308951F920F920FB60F92A5
:1001200011242F938F939F93EF93FF939091C60089
:1001300080919603E82FF0E0ED5FFE4F208192134F
:100140000DC08F5F80939603843051F4F89488E15A
:100150008093600088E080936000FFCF1092960348
:10016000E09133038E2F8F5F8F3F09F480E0209161
:100170003203821731F0F0E0ED5CFD4F9083809305
:100180003303FF91EF919F918F912F910F900FBEAD
:100190000F901F9018951F920F920FB60F92112477
:1001A0008F939F93EF93FF93909194038091950386
:1001B000981789F0E0919403F0E0EC5CFC4F90819B
:1001C000809194038F5F803609F480E080939403DC
:1001D0009093C60005C08091C1008F7D8093C100BF
:1001E000FF91EF919F918F910F900FBE0F901F90F5
:1001F00018959091320380913303981301C017C072
:10020000E0913203F0E0ED5CFD4F408180913203DC
:100210008F5F8F3F09F480E0809332038091340137
:10022000811107C04F3F69F481E08093340180E081
:100230000895423031F481E08093410110923401FD
:100240001BC080914101823019F44093360114C0E3
:10025000833019F4409335010FC0843040F390E0AF
:100260002091360130E02D5F3F4F28173907FCF20F
:10027000FC01ED5CFE4F4083209141012F5F2093F4
:1002800041012430A0F280913501882381F230E0D1
:100290008091360190E004962817390741F61092B4
:1002A000410181E0089508951F920F920FB60F92B9
:1002B00011242F933F934F935F936F937F938F936B
:1002C0009F93AF93BF93EF93FF9323B183B12270BA
:1002D00030E0827090E02817390741F463B16695E9
:1002E000617081E0682788E00E94F002FF91EF9141
:1002F000BF91AF919F918F917F916F915F914F913E
:100300003F912F910F900FBE0F901F9018951F9245
:100310000F920FB60F9211242F933F934F935F9339
:100320006F937F938F939F93AF93BF93EF93FF93BD
:1003300056B146B1252F217030E0842F817090E0B6
:100340002817390731F466B16095617080E20E9428
:10035000F002FF91EF91BF91AF919F918F917F91AB
:100360006F915F914F913F912F910F900FBE0F9022
:100370001F9018951F920F920FB60F9211242F9372
:100380003F934F935F936F937F938F939F93AF931D
:10039000BF93EF93FF9329B189B1287030E0887043
:1003A00090E02817390749F469B163FB662760F9C3
:1003B00081E0682784E00E94F002FF91EF91BF91F5
:1003C000AF919F918F917F916F915F914F913F91ED
:1003D0002F910F900FBE0F901F901895982FE7E068
:1003E000F1E080E02191291721F08F5F8031D1F772
:1003F00080E008959091320380913303981709F4B7
:100400006BC0E0913203F0E0ED5CFD4F8081909194
:1004100032039F5F9F3F09F490E090933203843250
:1004200051F41092280182E08093000110922A0179
:10043000109229011EC00E94EE014091000190E03F
:1004400054E045029001112402C0880F991F2A959B
:10045000E2F72091290130912A01822B932B90936E
:100460002A0180932901242F21502093000127FD88
:1004700002C081E0089522E02093000196958795BF
:10048000E0912801F0E0E55DFE4F8F3F910511F00E
:1004900008F08FEF808310922A0110922901809139
:1004A00028018F5F80932801833019F7109228016B
:1004B00080912F0181110CC080912B01809331011B
:1004C00080912C018093320180912D018093330122
:1004D00081E080932F01089580E008951F920F928C
:1004E0000FB60F9211242F933F934F935F936F9307
:1004F0007F938F939F93AF93BF93CF93EF93FF938C
:10050000C091B900C87F6C2F82E491E00E94CF03B4
:1005100081110AC06C2F82E491E00E94B90481111C
:1005200003C085ED8093BC00FF91EF91CF91BF9107
:10053000AF919F918F917F916F915F914F913F917B
:100540002F910F900FBE0F901F901895FF920F9351
:100550001F93CF93DF93EC016FEF83E392E00E9450
:1005600057056FEE83E392E00E945705698183E3AC
:1005700092E00E945705688183E392E00E9457054C
:10058000F9808E010E5F1F4FE80105C0699183E37A
:1005900092E00E9457058C2F801B8F15B8F3DF91D6
:1005A000CF911F910F91FF900895409A299A5B9ADD
:1005B000E8E6F0E08081876080838BB387608BBB47
:1005C000EDE6F0E0808188608083ECE6F0E08081F9
:1005D00081608083EBE6F0E0808182608083089513
:1005E000909130019823662319F091111EC010C01C
:1005F0009923D9F00DC090913001982B9093300140
:100600000895909130018095892380933001089559
:100610005F9A91E090932E0124E630E0309302013E
:1006200020930101662369F3E6CF08957894C2E030
:10063000C093C00086E08093C2001092C5008FEC8A
:100640008093C40080E88093C1000E94D502C093CB
:10065000B8001092B9001092BD001092BA0085EC5B
:100660008093BC008AB1806C8AB95E9AC093BA004C
:100670008FE590E090932B0280932A0210922D0236
:1006800010922C028091C1008F7E8093C1008091D6
:10069000C10088608093C100A8E1B1E011C0E09181
:1006A00095038E2F8F5F803609F480E020919403AC
:1006B000821731F0F0E0EC5CFC4F9083809395035F
:1006C0009D919111ECCF8091C10080628093C10017
:1006D00090919403809195039813FACF0E94830020
:1006E0000E94FA018111FCCF80912E018823C1F371
:1006F00080910101909102011816190654F480911D
:1007000001019091020101979093020180930101F0
:10071000E7CF5F98E5CF1092320310923303109227
:10072000940310929503109282011092830110920B
:10073000C4011092C5011092F6011092F7011092B7
:1007400028021092290210922B0210922A02109273
:100750002E02109230021092350110923601089547
:10076000DC01D1968C91D197282F2F5F203109F48D
:1007700020E0D0969C91D097291779F090E0FC0169
:10078000EE0FFF1FE80FF91FEA0FFB1F4083518395
:100790006283D1962C9381E0089580E00895CF93F1
:1007A000DF93EC01683209F44DC070F46031E9F078
:1007B00020F4683009F0C5C018C0683109F442C09F
:1007C000603209F0BEC03EC0683409F4BCC030F4E9
:1007D0006033C1F1603409F0B4C07AC0603509F407
:1007E00055C0683509F0ADC085C0DE01AC57BF4FBC
:1007F000D0969C91D097D1968C91D197981709F467
:10080000A0C0D0968C91D09790E0FC01EE0FFF1F16
:10081000E80FF91FEA0FFB1F208191818281FE0101
:10082000E351FF4F208391838283D0968C918F5F19
:10083000803109F480E0CC57DF4F88AB8081809312
:10084000BB0054C0DE01A151BF4FFE01E251FF4F7A
:100850009C918081981301C076C0FE01E05CFF4F3F
:100860008081DE01A80FB11D8C918093BB0085ECC7
:100870008093BC0080818F5F803409F480E08083A6
:10088000C151DF4F88818F5F888359C02091BB00A1
:10089000FC01ED57FF4F9081892F8F5F803409F461
:1008A00080E0FE01EE5BFF4FDE01AE57BF4F3C9193
:1008B000831709F446C0E90FF11D2083FE01ED57AF
:1008C000FF4F8083FE01E151FF4F80818F5F808366
:1008D000FE01E151FF4F208130E02F5F3F4FC251B9
:1008E000DF4F888190E02817390714F485EC25C084
:1008F00085E823C02091BB00FC01ED57FF4F90819C
:10090000892F8F5F803409F480E0FE01EE5BFF4F9A
:10091000DE01AE57BF4F3C91831799F0E90FF11DEF
:100920002083FE01ED57FF4F8083FE01E151FF4F11
:1009300080818F5F808307C085ED8093BC0081E05C
:1009400015C080E013C0FE01E351FF4F408151818B
:100950006281CE018A549F4F0E94B003CC57DF4F73
:1009600098A989A9981741F385EEE7CFDF91CF9138
:100970000895CF93DF93EC016039A9F168F46037F3
:10098000E9F020F4603609F087C018C0603859F1EA
:10099000683809F081C054C0683A09F469C038F475
:1009A000683909F44DC0603A09F076C049C0683B27
:1009B00009F45EC0603C09F06FC04DC01092320275
:1009C000FE01E351FF4F81E08083FE01E451FF4FC0
:1009D0008081FE01E251FF4F8083C151DF4F1882B9
:1009E000811141C02BC02091BB00FE01ED57FF4F8C
:1009F0009081892F8F5F803409F480E0DE01AE5B47
:100A0000BF4FFE01EE57FF4F3081FE01E151FF4F16
:100A1000831709F443C0A90FB11D2C93DE01AD5714
:100A2000BF4F8C9380818F5F8083FE01E151FF4F28
:100A3000C251DF4F90818881981315C085E814C09A
:100A4000FE01E351FF4F408151816281CE018A5402
:100A50009F4F0E94B003CC57DF4F98A989A99817E0
:100A600011F085EE01C085EC8093BC0081E01CC0D4
:100A7000FE01E851FF4F80819181892B11F48FEFA6
:100A800008C00190F081E02DC651DF4F8881998127
:100A900009958093BB00E7CF80E006C0DE01A2513C
:100AA000BF4F80818C93C1CFDF91CF910895FC011E
:100AB000EE59FE4F3081232F2F5F203609F420E0BE
:100AC000FC01EF5FFE4FDC01AF59BE4F4C91241784
:100AD00039F0E30FF11D6083FC01EE59FE4F2083D6
:100AE0008091C10080628093C1000895EE0FFF1FC6
:0C0AF0000590F491E02D0994F894FFCFDC
:100AFC0002E803747E7A333031323334353637388A
:100B0C0039414243444546003D20202830302024C2
:080B1C00206D202920210000BA
:00000001FF
