:100000000C9435000C945D000C945D000C9454012C
:100010000C9487010C94BA010C945D000C945D0063
:100020000C945D000C945D000C945D000C945D00DC
:100030000C945D000C945D000C945D000C945D00CC
:100040000C945D000C945D000C948C000C94CB001F
:100050000C945D000C945D000C945D000C945D00AC
:100060000C9462020C945D005E0311241FBECFEF5E
:10007000D4E0DEBFCDBF11E0A0E0B1E0E2EAFAE0FB
:1000800002C005900D92A632B107D9F713E0A6E29F
:10009000B1E001C01D92A93AB107E1F710E0CAE64C
:1000A000D0E004C02297FE010E944B05C836D1075C
:1000B000C9F70E9401030C944F050C94000001C085
:1000C0000000809141018823D9F380914402982F48
:1000D0009F5F90934402813049F028F0823049F0CC
:1000E000833079F409C080914201089580914301E1
:1000F0000895809144010895109241018091450135
:1001000008958FEF0895E1ECF0E08081877F808390
:1001100080818061808308951F920F920FB60F92A5
:1001200011242F938F939F93EF93FF939091C60089
:100130008091A803E82FF0E0ED5FFE4F208192133D
:100140000DC08F5F8093A803843051F4F89488E148
:100150008093600088E080936000FFCF1092A80336
:10016000E09145038E2F8F5F8F3F09F480E020914F
:100170004403821731F0F0E0EB5BFD4F90838093F6
:100180004503FF91EF919F918F912F910F900FBE9B
:100190000F901F9018951F920F920FB60F92112477
:1001A0008F939F93EF93FF939091A6038091A70362
:1001B000981789F0E091A603F0E0EA5BFC4F90818C
:1001C0008091A6038F5F803609F480E08093A603B8
:1001D0009093C60005C08091C1008F7D8093C100BF
:1001E000FF91EF919F918F910F900FBE0F901F90F5
:1001F00018959091440380914503981301C017C04E
:10020000E0914403F0E0EB5BFD4F408180914403BB
:100210008F5F8F3F09F480E0809344038091460113
:10022000811107C04F3F69F481E08093460180E06F
:100230000895423031F481E08093530110924601D9
:100240001BC080915301823019F44093480114C0BF
:10025000833019F4409347010FC0843040F390E09D
:100260002091480130E02D5F3F4F28173907FCF2FD
:10027000FC01EB5BFE4F4083209153012F5F2093E5
:1002800053012430A0F280914701882381F230E0AD
:100290008091480190E004962817390741F61092A2
:1002A000530181E0089508951F920F920FB60F92A7
:1002B00011242F933F934F935F936F937F938F936B
:1002C0009F93AF93BF93EF93FF9323B183B12270BA
:1002D00030E0827090E02817390741F463B16695E9
:1002E000617081E0682788E00E94E402FF91EF914D
:1002F000BF91AF919F918F917F916F915F914F913E
:100300003F912F910F900FBE0F901F9018951F9245
:100310000F920FB60F9211242F933F934F935F9339
:100320006F937F938F939F93AF93BF93EF93FF93BD
:1003300056B146B1252F217030E0842F817090E0B6
:100340002817390731F466B16095617080E20E9428
:10035000E402FF91EF91BF91AF919F918F917F91B7
:100360006F915F914F913F912F910F900FBE0F9022
:100370001F9018951F920F920FB60F9211242F9372
:100380003F934F935F936F937F938F939F93AF931D
:10039000BF93EF93FF9329B189B1287030E0887043
:1003A00090E02817390749F469B163FB662760F9C3
:1003B00081E0682784E00E94E402FF91EF91BF9101
:1003C000AF919F918F917F916F915F914F913F91ED
:1003D0002F910F900FBE0F901F901895982FE7E068
:1003E000F1E080E02191291721F08F5F8031D1F772
:1003F00080E008959091440380914503981709F493
:100400005FC0E0914403F0E0EB5BFD4F8081909191
:1004100044039F5F9F3F09F490E0909344030E9440
:10042000EE014091000190E054E04502900111245A
:1004300002C0880F991F2A95E2F720912701309179
:100440002801822B932B9093280180932701242F3E
:1004500021502093000127FD02C081E0089522E091
:100460002093000196958795E0912601F0E0E75DE5
:10047000FE4F8F3F910511F008F08FEF80831092AF
:10048000280110922701809126018F5F8093260119
:10049000833019F7109226018091410181110CC01F
:1004A000809129018093430180912A018093440126
:1004B00080912B018093450181E080934101089553
:1004C00080E008951F920F920FB60F9211242F9380
:1004D0003F934F935F936F937F938F939F93AF93CC
:1004E000BF93CF93EF93FF93C091B900C87F6C2F58
:1004F00084E591E00E94A20381110AC06C2F84E57B
:1005000091E00E948C04811103C085ED8093BC00B2
:10051000FF91EF91CF91BF91AF919F918F917F917B
:100520006F915F914F913F912F910F900FBE0F9060
:100530001F901895FF920F931F93CF93DF93EC01B9
:100540006FEF85E492E00E942A056FEE85E492E069
:100550000E942A05698185E492E00E942A0568814B
:1005600085E492E00E942A05F9808E010E5F1F4FFC
:10057000E80105C0699185E492E00E942A058C2F6C
:10058000801B8F15B8F3DF91CF911F910F91FF90D2
:100590000895409A299A5B9AE8E6F0E080818760A6
:1005A00080838BB387608BBBEDE6F0E08081886051
:1005B0008083ECE6F0E0808181608083EBE6F0E010
:1005C0008081826080830895909142019823662300
:1005D00019F0911115C010C0992391F00DC09091A0
:1005E0004201982B90934201089590914201809589
:1005F00089238093420108955F9A6623B1F3EFCF78
:1006000008957894C2E0C093C00086E08093C20051
:100610001092C5008FEC8093C40080E88093C100E5
:100620000E94C902C093B8001092B9001092BD0098
:100630001092BA0085EC8093BC008AB1806C8AB9B4
:100640005E9AC093BA008FE590E090933D0280934C
:100650003C0210923F0210923E028091C1008F7EB8
:100660008093C1008091C10088608093C100A8E19F
:10067000B1E011C0E091A7038E2F8F5F803609F49F
:1006800080E02091A603821731F0F0E0EA5BFC4F96
:1006900090838093A7039D919111ECCF8091C1002D
:1006A00080628093C1009091A6038091A703981364
:1006B000FACF0E9483000E94FA01FDCF10924403FA
:1006C000109245031092A6031092A7031092940172
:1006D000109295011092D6011092D7011092080243
:1006E0001092090210923A0210923B0210923D02BF
:1006F00010923C0210924002109242021092470166
:10070000109248010895DC01D1968C91D197282F41
:100710002F5F203109F420E0D0969C91D0972917C3
:1007200079F090E0FC01EE0FFF1FE80FF91FEA0FD0
:10073000FB1F408351836283D1962C9381E00895FF
:1007400080E00895CF93DF93EC01683209F44DC047
:1007500070F46031E9F020F4683009F0C5C018C0C9
:10076000683109F442C0603209F0BEC03EC068344E
:1007700009F4BCC030F46033C1F1603409F0B4C096
:100780007AC0603509F455C0683509F0ADC085C040
:10079000DE01AC57BF4FD0969C91D097D1968C91EB
:1007A000D197981709F4A0C0D0968C91D09790E07B
:1007B000FC01EE0FFF1FE80FF91FEA0FFB1F20815E
:1007C00091818281FE01E351FF4F208391838283D7
:1007D000D0968C918F5F803109F480E0CC57DF4F49
:1007E00088AB80818093BB0054C0DE01A151BF4F14
:1007F000FE01E251FF4F9C918081981301C076C0A9
:10080000FE01E05CFF4F8081DE01A80FB11D8C91DD
:100810008093BB0085EC8093BC0080818F5F803427
:1008200009F480E08083C151DF4F88818F5F888326
:1008300059C02091BB00FC01ED57FF4F9081892FDB
:100840008F5F803409F480E0FE01EE5BFF4FDE0134
:10085000AE57BF4F3C91831709F446C0E90FF11D15
:100860002083FE01ED57FF4F8083FE01E151FF4FD2
:1008700080818F5F8083FE01E151FF4F208130E056
:100880002F5F3F4FC251DF4F888190E02817390713
:1008900014F485EC25C085E823C02091BB00FC0141
:1008A000ED57FF4F9081892F8F5F803409F480E0EE
:1008B000FE01EE5BFF4FDE01AE57BF4F3C91831749
:1008C00099F0E90FF11D2083FE01ED57FF4F808362
:1008D000FE01E151FF4F80818F5F808307C085ED6E
:1008E0008093BC0081E015C080E013C0FE01E3519D
:1008F000FF4F408151816281CE018A549F4F0E94F7
:100900008303CC57DF4F98A989A9981741F385EE47
:10091000E7CFDF91CF910895CF93DF93EC0160395A
:10092000A9F168F46037E9F020F4603609F087C077
:1009300018C0603859F1683809F081C054C0683A6D
:1009400009F469C038F4683909F44DC0603A09F017
:1009500076C049C0683B09F45EC0603C09F06FC0D6
:100960004DC010924402FE01E351FF4F81E08083AD
:10097000FE01E451FF4F8081FE01E251FF4F808371
:10098000C151DF4F1882811141C02BC02091BB00A3
:10099000FE01ED57FF4F9081892F8F5F803409F45E
:1009A00080E0DE01AE5BBF4FFE01EE57FF4F3081AE
:1009B000FE01E151FF4F831709F443C0A90FB11D98
:1009C0002C93DE01AD57BF4F8C9380818F5F808366
:1009D000FE01E151FF4FC251DF4F90818881981392
:1009E00015C085E814C0FE01E351FF4F40815181DD
:1009F0006281CE018A549F4F0E948303CC57DF4F00
:100A000098A989A9981711F085EE01C085EC80930B
:100A1000BC0081E01CC0FE01E851FF4F8081918144
:100A2000892B11F48FEF08C00190F081E02DC651A1
:100A3000DF4F8881998109958093BB00E7CF80E0E3
:100A400006C0DE01A251BF4F80818C93C1CFDF91E0
:100A5000CF910895FC01EE59FE4F3081232F2F5F77
:100A6000203609F420E0FC01EF5FFE4FDC01AF59B6
:100A7000BE4F4C91241739F0E30FF11D6083FC0148
:100A8000EE59FE4F20838091C10080628093C100A7
:100A90000895EE0FFF1F0590F491E02D0994F8944E
:020AA000FFCF86
:100AA20002E803747E7A33303132333435363738E4
:100AB20039414243444546003D2020283030206DD4
:060AC200202920210000A4
:00000001FF
