:100000000C9435000C945D000C945D000C94090276
:100010000C94D0010C9496010C945D000C945D003E
:100020000C945D000C945D000C945D000C945D00DC
:100030000C945D000C945D000C945D000C945D00CC
:100040000C945D000C945D000C9467000C94A60069
:100050000C945D000C945D000C945D000C945D00AC
:100060000C942F010C945D009B0211241FBECFEF56
:10007000D4E0DEBFCDBF11E0A0E0B1E0E4E9F9E0FB
:1000800002C005900D92A430B107D9F712E0A4E0A8
:10009000B1E001C01D92AA38B107E1F710E0CAE64D
:1000A000D0E004C02297FE010E94C404C836D107E4
:1000B000C9F70E945D020C94C8040C94000081E012
:1000C00080930501109204018091060108951F920A
:1000D0000F920FB60F9211242F938F939F93EF934C
:1000E000FF939091C60080918902E82FF0E0E050E4
:1000F000FF4F208192130DC08F5F8093890284305F
:1001000051F4F89488E18093600088E08093600067
:10011000FFCF10928902E09126028E2F8F5F8032EE
:1001200009F480E020912502821731F0F0E0EB5FC6
:10013000FD4F908380932602FF91EF919F918F91C5
:100140002F910F900FBE0F901F9018951F920F9236
:100150000FB60F9211248F939F93EF93FF9390917B
:10016000870280918802981789F0E0918702F0E079
:10017000E95DFD4F9081809187028F5F803609F4A1
:1001800080E0809387029093C60005C08091C100F3
:100190008F7D8093C100FF91EF919F918F910F9080
:1001A0000FBE0F901F901895909125028091260206
:1001B000981301C017C0E0912502F0E0EB5FFD4FFE
:1001C0004081809125028F5F803209F480E0809326
:1001D000250280910701811107C04F3F69F481E03A
:1001E0008093070180E00895423031F481E08093EC
:1001F0001401109207011BC080911401823019F480
:100200004093090114C0833019F4409308010FC0D2
:10021000843040F390E02091090130E02D5F3F4FA2
:1002200028173907FCF2FC01EA5FFE4F408320915A
:1002300014012F5F209314012430A0F28091080153
:10024000882381F230E08091090190E0049628171C
:10025000390741F61092140181E0089508951F9224
:100260000F920FB60F9211242F933F934F935F93EA
:100270006F937F938F939F93AF93BF93CF93EF939E
:10028000FF93C091B900C87F6C2F85E191E00E9477
:10029000DF0281110AC06C2F85E191E00E94C90341
:1002A000811103C085ED8093BC00FF91EF91CF9148
:1002B000BF91AF919F918F917F916F915F914F917E
:1002C0003F912F910F900FBE0F901F901895FF92A6
:1002D0000F931F93CF93DF93EC016FEF85E092E0D4
:1002E0000E9465046FEE85E092E00E9465046981DA
:1002F00085E092E00E946504688185E092E00E94BA
:100300006504F9808E010E5F1F4FE80105C06991F9
:1003100085E092E00E9465048C2F801B8F15B8F356
:10032000DF91CF911F910F91FF9008951F920F922F
:100330000FB60F9211242F933F934F935F936F93B8
:100340007F938F939F93AF93BF93EF93FF9329B1C5
:100350008FE39CE90197F1F700C0000089B1287094
:1003600030E0887090E02817390749F469B163FBE1
:10037000662760F981E0682784E00E948204FF918B
:10038000EF91BF91AF919F918F917F916F915F910D
:100390004F913F912F910F900FBE0F901F90189586
:1003A0001F920F920FB60F9211242F933F934F93EA
:1003B0005F936F937F938F939F93AF93BF93EF93CD
:1003C000FF9356B18FE39CE90197F1F700C000005D
:1003D00046B1252F217030E0842F817090E02817DE
:1003E000390731F466B16095617080E20E94820441
:1003F000FF91EF91BF91AF919F918F917F916F91FD
:100400005F914F913F912F910F900FBE0F901F90D2
:1004100018951F920F920FB60F9211242F933F93AE
:100420004F935F936F937F938F939F93AF93BF93FC
:10043000EF93FF9323B18FE39CE90197F1F700C09D
:10044000000083B1227030E0827090E028173907F5
:1004500041F463B16695617081E0682788E00E948D
:100460008204FF91EF91BF91AF919F918F917F9106
:100470006F915F914F913F912F910F900FBE0F9011
:100480001F901895409A299A5B9AE8E6F0E08081DF
:10049000876080838BB387608BBBEDE6F0E0808163
:1004A00088608083ECE6F0E0808181608083EBE609
:1004B000F0E080818260808308957894C2E0C093E8
:1004C000C00086E08093C2001092C50089E180934D
:1004D000C40088E98093C1000E944202C093B80022
:1004E0001092B9001092BD001092BA0085EC809372
:1004F000BC008AB1806C8AB95E9A8FE590E09093D7
:10050000FE018093FD01109200021092FF01809184
:100510000501882349F0809104018A3010F05F982A
:1005200003C08F5F809304018FE19EE40197F1F790
:1005300000C00000ECCF109225021092260210920B
:100540008702109288021092550110925601109263
:100550009701109298011092C9011092CA0110924D
:10056000FB011092FC011092FE011092FD0110920D
:1005700001021092030210920801109209010895DD
:10058000DC01D1968C91D197282F2F5F203109F46F
:1005900020E0D0969C91D097291779F090E0FC014B
:1005A000EE0FFF1FE80FF91FEA0FFB1F4083518377
:1005B0006283D1962C9381E0089580E00895CF93D3
:1005C000DF93EC01683209F44DC070F46031E9F05A
:1005D00020F4683009F0C5C018C0683109F442C081
:1005E000603209F0BEC03EC0683409F4BCC030F4CB
:1005F0006033C1F1603409F0B4C07AC0603509F4E9
:1006000055C0683509F0ADC085C0DE01AC57BF4F9D
:10061000D0969C91D097D1968C91D197981709F448
:10062000A0C0D0968C91D09790E0FC01EE0FFF1FF8
:10063000E80FF91FEA0FFB1F208191818281FE01E3
:10064000E351FF4F208391838283D0968C918F5FFB
:10065000803109F480E0CC57DF4F88AB80818093F4
:10066000BB0054C0DE01A151BF4FFE01E251FF4F5C
:100670009C918081981301C076C0FE01E05CFF4F21
:100680008081DE01A80FB11D8C918093BB0085ECA9
:100690008093BC0080818F5F803409F480E0808388
:1006A000C151DF4F88818F5F888359C02091BB0083
:1006B000FC01ED57FF4F9081892F8F5F803409F443
:1006C00080E0FE01EE5BFF4FDE01AE57BF4F3C9175
:1006D000831709F446C0E90FF11D2083FE01ED5791
:1006E000FF4F8083FE01E151FF4F80818F5F808348
:1006F000FE01E151FF4F208130E02F5F3F4FC2519B
:10070000DF4F888190E02817390714F485EC25C065
:1007100085E823C02091BB00FC01ED57FF4F90817D
:10072000892F8F5F803409F480E0FE01EE5BFF4F7C
:10073000DE01AE57BF4F3C91831799F0E90FF11DD1
:100740002083FE01ED57FF4F8083FE01E151FF4FF3
:1007500080818F5F808307C085ED8093BC0081E03E
:1007600015C080E013C0FE01E351FF4F408151816D
:100770006281CE018A549F4F0E94C002CC57DF4F46
:1007800098A989A9981741F385EEE7CFDF91CF911A
:100790000895CF93DF93EC01603999F168F46037E5
:1007A000E9F020F4603609F085C018C0603849F1DE
:1007B000683809F07FC052C0683A09F467C038F45D
:1007C000683909F44BC0603A09F074C047C0683B0F
:1007D00009F45CC0603C09F06DC04BC0FE01E35100
:1007E000FF4F81E08083FE01E451FF4F8081FE01D5
:1007F000E251FF4F8083C151DF4F1882811141C008
:100800002BC02091BB00FE01ED57FF4F9081892F37
:100810008F5F803409F480E0DE01AE5BBF4FFE01E4
:10082000EE57FF4F3081FE01E151FF4F831709F46E
:1008300043C0A90FB11D2C93DE01AD57BF4F8C9360
:1008400080818F5F8083FE01E151FF4FC251DF4FF6
:1008500090818881981315C085E814C0FE01E3518A
:10086000FF4F408151816281CE018A549F4F0E9487
:10087000C002CC57DF4F98A989A9981711F085EECF
:1008800001C085EC8093BC0081E01CC0FE01E851F2
:10089000FF4F80819181892B11F48FEF08C0019067
:1008A000F081E02DC651DF4F8881998109958093B1
:1008B000BB00E7CF80E006C0DE01A251BF4F8081C0
:1008C0008C93C1CFDF91CF910895FC01ED57FF4F7D
:1008D0003081232F2F5F203609F420E0FC01EE57F2
:1008E000FF4F4081241741F0FC01E30FF11D62A38B
:1008F000FC01ED57FF4F20838091C10080628093FF
:10090000C1000895CF93DF93CDB7DEB72C970FB614
:10091000F894DEBF0FBECDBF9091060198236623E9
:1009200019F0911126C002C0992319F15F9A209104
:100930000601662321F0282B2093060105C0982F7D
:1009400090959223909306019091060190739033B5
:1009500009F480E399E1998392E09A838B836C8315
:10096000CE0101960E94670181E0809305011092FB
:1009700004012C960FB6F894DEBF0FBECDBFDF91F9
:10098000CF910895EE0FFF1F0590F491E02D09948B
:04099000F894FFCF09
:04099400747E7A33C0
:00000001FF
