:100000000C946C000C9494000C9494000C94FC06DA
:100010000C9494000C9471070C9494000C9494002C
:100020000C9494000C9494000C9494000C94940000
:100030000C9494000C9496000C9494000C949400EE
:100040000C94BB000C9494000C9416010C94550174
:100050000C9494000C94CD050C9494000C94940092
:100060000C94C7020C949400040859096F081F08E7
:100070005909590959095909740859095909590956
:100080005909590959097D08BC088E085909BC0845
:10009000AB085909590959095909590959095909FF
:1000A000590959095909C708CD08D4085909DD0863
:1000B000ED085909FA085909C00859095909590997
:1000C0005909590959095909100959095909590969
:1000D000160959094609E70E11241FBECFEFD4E0D7
:1000E000DEBFCDBF11E0A0E0B1E0E6E4FEE102C07A
:1000F00005900D92AA31B107D9F712E0AAE1B1E05B
:1001000001C01D92A93FB107E1F710E0C8EDD0E0B2
:1001100004C02297FE010E941D0FC63DD107C9F7FA
:100120000E94E20E0C94210F0C9400001F920F927B
:100130000FB60F9211248F939F93AF93BF9380912B
:10014000EF029091F002A091F102B091F20290546E
:10015000AF4FBF4F8093EF029093F002A093F10254
:10016000B093F202BF91AF919F918F910F900FBE0C
:100170000F901F9018951F920F920FB60F92112497
:100180008F939F938091F3028F5F8093F30283306C
:1001900009F045C01092F3029091EE028091F402B2
:1001A0008917F1F0891714F48F5F01C08150809393
:1001B000F4028091F402811103C01092B3000EC0CA
:1001C00087FF08C01092B3008195880F8F5F8093DE
:1001D000B40006C0880F8F5F8093B3001092B40004
:1001E0009091ED028091F5028917C9F0891714F4F6
:1001F0008F5F01C081508093F5028091F5028111DB
:1002000002C017BC0BC018162CF417BC880F8F5FE8
:1002100088BD05C08195880F8F5F87BD18BC9F91F1
:100220008F910F900FBE0F901F9018951F920F92F5
:100230000FB60F9211242F938F939F93EF93FF93F9
:100240009091C6008091F802E82FF0E0EB5EFE4F3F
:10025000208192130DC08F5F8093F802843051F497
:10026000F89488E18093600088E080936000FFCF7D
:100270001092F802E09187028E2F8F5F803209F48E
:1002800080E020918602821731F0F0E0EA59FD4FBC
:10029000908380938702FF91EF919F918F912F918F
:1002A0000F900FBE0F901F9018951F920F920FB6D0
:1002B0000F9211248F939F93EF93FF939091E802F5
:1002C0008091E902981789F0E091E802F0E0E857A0
:1002D000FD4F90818091E8028F5F803609F480E0C5
:1002E0008093E8029093C60005C08091C1008F7D85
:1002F0008093C100FF91EF919F918F910F900FBE5E
:100300000F901F901895EDE6F0E080818460808367
:10031000EBE6F0E080818062808385E08BBB809398
:100320006800089508951092680010926D00109270
:100330006B0008950F931F93F894882349F0009160
:1003400038011091390120913A0130913B0108C0E8
:1003500000914001109141012091420130914301EF
:100360007894B801C9011F910F9108950F931F93BD
:10037000F894882349F000913401109135012091BF
:1003800036013091370108C000913C0110913D01C8
:1003900020913E0130913F017894B801C9011F912D
:1003A0000F910895F894882389F0109238011092E3
:1003B000390110923A0110923B01109234011092CF
:1003C0003501109236011092370110C010923C0195
:1003D00010923D0110923E0110923F011092400197
:1003E00010924101109242011092430178940895B5
:1003F00080FF0CC04CEF46039001479F300D112445
:100400002F543C44309389002093880081FF0CC016
:100410004CEF46039001479F300D11242F543C446C
:1004200030938B0020938A0082FF1DC0672BA1F0C0
:10043000109211010E940E0C81E08093640180EC07
:1004400091EEA4EEB0E08093050190930601A09395
:100450000701B0930801089581E080931101109283
:1004600064010C94140C089520E030E095E0929F14
:10047000F001939FF00D1124EC5BFE4FA081A817B3
:1004800081F0A081AA2331F02F5F3F4F2530310545
:1004900071F70895F8948083728361835483438352
:1004A0007894089520E030E095E0929FF001939FCA
:1004B000F00D1124EC5BFE4F4081481304C0F8940A
:1004C0001082789408952F5F3F4F2530310569F7EA
:1004D00008959091860280918702981301C01BC0F5
:1004E000E0918602F0E0EA59FD4F4081809186025A
:1004F0008F5F803209F480E080938602809126012C
:1005000081110BC08091330181110EC04F3F61F406
:1005100081E08093260180E00895413029F44093E2
:100520003301109226011CC080913301823021F4E6
:1005300041504093280114C0833019F4409327019F
:100540000FC0843040F390E02091280130E02D5F0F
:100550003F4F28173907FCF2FC01EB5DFE4F40834B
:10056000209133012F5F209333012430A0F280913A
:100570002701882381F230E08091280190E00496E1
:100580002817390741F61092330181E008951F9230
:100590000F920FB60F9211242F933F934F935F93B7
:1005A0006F937F938F939F93AF93BF93CF93EF936B
:1005B000FF938091B900887F883209F440C068F4C5
:1005C0008031E1F020F4883009F0E5C017C08831AF
:1005D000B1F1803209F0DFC032C0883409F47EC046
:1005E00030F4803361F1803409F0D5C05CC08035CF
:1005F00009F44BC0883509F0CEC062C020912A02B0
:1006000090912B02291709F4C6C080912A0290E02C
:10061000FC01EE0FFF1FE80FF91FE650FE4F20818F
:10062000918182812093630290936402809365029A
:100630008AEF91E00E94D80C80916302A8C0C0911B
:10064000650280916402C8130BC005C086E791E083
:100650000E94380DCF5F80916402C817B8F33EC086
:10066000E091B601F0E0EA58FE4F80818093BB0034
:1006700085EC8093BC0086E791E00E94380D809164
:1006800065028F5F80936502A6C06091BB0088EB16
:1006900091E00E944D0C882309F49AC08091650274
:1006A0008F5F809365022091650230E02F5F3F4F9E
:1006B0008091640290E0281739070CF043C069C0AC
:1006C0006091BB0088EB91E00E944D0C882309F4F7
:1006D0007FC0809165028F5F8093650240916302C5
:1006E00050916402609165028CE292E00E94680C75
:1006F00090912A0280912B02981709F469C034C0A6
:1007000081E0809363028091620280936402109280
:10071000650281113EC016C06091BB0088EB91E07C
:100720000E944D0C90916502811103C09093640268
:1007300003C09F5F9093650290916502809164026F
:10074000981327C085E845C0409163025091640228
:10075000609165028CE292E00E94680C90912A02FE
:1007600080912B029817A9F085EE33C080915E022C
:1007700090915F02892B11F48FEF09C0E0915E0226
:10078000F0915F02809160029091610209958093DF
:10079000BB0085EC1EC0803909F4BECF68F48037F9
:1007A00009F4AECF18F4803699F4AACF803809F452
:1007B000B3CF883869F4C8CF883AC1F228F48839B1
:1007C00019F2803A29F4C0CF883B81F2803C31F2A3
:1007D00085ED8093BC00FF91EF91CF91BF91AF91D8
:1007E0009F918F917F916F915F914F913F912F9149
:1007F0000F900FBE0F901F901895FF920F931F93AD
:10080000CF93DF93EC01162F6FEF86E692E00E9404
:100810000B0E612F86E692E00E940B0E69816F5FDE
:1008200086E692E00E940B0E688186E692E00E94C6
:100830000B0EF9808E010E5F1F4FE80105C0699114
:1008400086E692E00E940B0E8C2F801B8F15B8F36A
:10085000DF91CF911F910F91FF900895FF920F9319
:100860001F93CF93DF93EC016FEF86E692E00E9437
:100870000B0E6FEE86E692E00E940B0E69816F5FB1
:1008800086E692E00E940B0E688186E692E00E9466
:100890000B0EF9808E010E5F1F4FE80105C06991B4
:1008A00086E692E00E940B0E8C2F801B8F15B8F30A
:1008B000DF91CF911F910F91FF900895CF93DF9318
:1008C000CDB7DEB72C970FB6F894DEBF0FBECDBF05
:1008D00093E3998392E09A838B836C83CE01019694
:1008E0000E942E042C960FB6F894DEBF0FBECDBF2B
:1008F000DF91CF9108950E94CE0B0E94ED0B809165
:10090000750185FF0C944B0E08958F929F92AF92C4
:10091000BF92CF92DF92EF92FF920F931F9365E900
:1009200071E081E00E94F80160E070E082E00E94E6
:10093000F8010E940E0C0E94AC0B6B017C010E941E
:10094000AC0B6C197D098E099F09603A754286428D
:100950009105A8F380EA95E2A6E2B0E080930D014C
:1009600090930E01A0930F01B09310010E94140CFC
:1009700068EC7EEF81E00E94F80162EB72E082E0B9
:100980000E94F80180E00E94D2016FE78FE70E9489
:10099000280E0E94AC0B6B017C010E94AC0B6C1901
:1009A0007D098E099F09603A754286429105A8F338
:1009B00080EA95E2A6E2B0E080930D0190930E01EB
:1009C000A0930F01B093100160E080E00E94280E18
:1009D000F8948090400190904101A0904201B09025
:1009E00043017894F894C0903C01D0903D01E09090
:1009F0003E01F0903F01789480E00E94D201940182
:100A000011270027EE24FF240C291D292E293F2918
:100A1000B801C9011F910F91FF90EF90DF90CF9027
:100A2000BF90AF909F908F90089560E080E00E940B
:100A3000280E0E94140C10927A0087B1807F87B92B
:100A400014BC15BC1092B0001092B10008950F9321
:100A50001F9380916201813019F48091610103C07C
:100A600080916101819590916201913021F4909182
:100A70006101915004C02091610191E0921BF894B2
:100A800040913401509135016091360170913701E8
:100A90007894FA0157FF04C0F195E195F10901C07E
:100AA000FA01F894409138015091390160913A016E
:100AB00070913B0178948A0157FF04C04427552761
:100AC000401B510B2091750124FD2CC09F01241B5C
:100AD000350B37FF03C0319521953109A0910001F5
:100AE000B0E02A173B0718F51DC0682F892F01C0F9
:100AF000692F0E94280E8091750180612AC0E41B35
:100B0000F50BF7FF03C0F195E195F1092091000184
:100B100030E0E217F307B8F41FC081E01F910F9196
:100B20000C94D2019091750194FDE9CF15C08A0112
:100B300020E030E0AF0160E070E04017510762074D
:100B400073079CF2D5CF682F0E94280E8091750103
:100B50008F7E80937501E1CF1F910F910895CF9300
:100B6000DF93CDB7DEB72C970FB6F894DEBF0FBE7C
:100B7000CDBF89E1898382E08A8381E08B838C8386
:100B8000CE0101960E942E042C960FB6F894DEBF7B
:100B90000FBECDBFDF91CF9108951F920F920FB678
:100BA0000F9211242F933F934F935F936F937F93F3
:100BB0008F939F93AF93BF93CF93EF93FF938091C6
:100BC000F602882329F12091780030917900C091B4
:100BD000F702C11114C080911401882381F0932F72
:100BE00080E0822B2091120130911301821B930B24
:100BF0008F3F914021F4109214010E94AF059C2F69
:100C00009F5F97709093F70288B1887F892B88B98E
:100C10008091F60291E089278093F6028091140179
:100C2000882329F080917A00806480937A00FF9174
:100C3000EF91CF91BF91AF919F918F917F916F91E4
:100C40005F914F913F912F910F900FBE0F901F908A
:100C50001895CF93DF93CDB7DEB72C970FB6F894E6
:100C6000DEBF0FBECDBF909175019170891799F0CD
:100C700090917501882311F0916001C09E7F90933F
:100C8000750199E1998392E09A839B838C83CE01CD
:100C900001960E942E042C960FB6F894DEBF0FBE6C
:100CA000CDBFDF91CF910895DF92EF92FF920F9326
:100CB0001F93CF93DF93CDB7DEB72C970FB6F89481
:100CC000DEBF0FBECDBF80E49BE4ACE4B0E0809318
:100CD000010190930201A0930301B093040100E08D
:100CE00010E045E0F42E56E1D52EEE24E394F09E7C
:100CF000F001F19EF00D1124EC5BFE4F8081882302
:100D000009F44EC081819281892B61F4F09EF0013B
:100D1000F19EF00D1124EC5BFE4F83819481892BB1
:100D2000C1F023C041815281F8948091400190919B
:100D30004101A0914201B091430178949C0197FF39
:100D400004C088279927821B930B8417950778F591
:100D5000DDCFF09EF001F19EF00D1124EC5BFE4F13
:100D600081819281892BC1F01BC043815481F89409
:100D700080913C0190913D01A0913E01B0913F01D5
:100D800078949C0197FF04C088279927821B930BB6
:100D90008417950760F4DDCF83819481892B39F026
:100DA0000F5F1F4F0530110509F0A1CF17C0F89450
:100DB000D982EA82F09EF001F19EF00D1124EC5BE5
:100DC000FE4F80818B831082CE0101960E942E04FB
:100DD000109262010E944B0E7894E2CF2C960FB6CF
:100DE000F894DEBF0FBECDBFDF91CF911F910F9161
:100DF000FF90EF90DF9008951F920F920FB60F9221
:100E000011242F933F934F935F936F937F938F930F
:100E10009F93AF93BF93EF93FF9383B184FB992785
:100E200090F985FB882780F921E082279817F9F04F
:100E300080913C0190913D01A0913E01B0913F0114
:100E40000197A109B10980933C0190933D01A093C2
:100E50003E01B0933F018091340190913501A09102
:100E60003601B09137010197A109B1091EC08091E7
:100E70003C0190913D01A0913E01B0913F0101964E
:100E8000A11DB11D80933C0190933D01A0933E01B3
:100E9000B0933F018091340190913501A0913601CA
:100EA000B09137010196A11DB11D8093340190933B
:100EB0003501A0933601B093370181E00E945406BA
:100EC000FF91EF91BF91AF919F918F917F916F9122
:100ED0005F914F913F912F910F900FBE0F901F90F8
:100EE00018951F920F920FB60F9211242F933F93D4
:100EF0004F935F936F937F938F939F93AF93BF9322
:100F0000EF93FF9389B184FB992790F982FB88279F
:100F100080F921E082279817F9F0809140019091A3
:100F20004101A0914201B09143010197A109B1098A
:100F30008093400190934101A0934201B0934301FB
:100F40008091380190913901A0913A01B0913B0113
:100F50000197A109B1091EC0809140019091410102
:100F6000A0914201B09143010196A11DB11D809352
:100F7000400190934101A0934201B09343018091BD
:100F8000380190913901A0913A01B0913B0101964D
:100F9000A11DB11D8093380190933901A0933A01AE
:100FA000B0933B0180E00E945406FF91EF91BF9106
:100FB000AF919F918F917F916F915F914F913F91F1
:100FC0002F910F900FBE0F901F901895CF92DF9228
:100FD000EF92FF920F931F93CF93DF93CDB7DEB7BE
:100FE0002E970FB6F894DEBF0FBECDBF8C01FC016B
:100FF000408150E0FA013197E733F10508F059C11B
:10100000EC5CFF4F0C941B0F8AE191E00E942E04D0
:1010100080EA95E2A6E2B0E080930D0190930E0184
:10102000A0930F01B093100180911101882309F45E
:1010300040C180916301882309F436C13AC1FC01A3
:10104000928180E02381822B348120E04581242B12
:1010500082179307D1F497FF05C022273327281B57
:10106000390B01C09C013695279520936101209191
:101070006101211103C0109262012EC018161906D9
:1010800014F481E027C082E025C097FF05C06627E1
:101090007727681B790B01C0BC0137FF05C04427C7
:1010A0005527421B530B01C0A90164177507A1F412
:1010B00097FF05C044275527481B590B01C0AC01B9
:1010C00056954795409361012817390714F484E039
:1010D00001C088E0809362010E944B0EEAC0FC01CF
:1010E000828180930001E5C081E0F8019281913016
:1010F00009F080E080937401DCC0FC0125819381BC
:101100008481792F60E0682B213019F47195619505
:101110007109F80182810E94F801CBC083E18983C3
:1011200084E08A83F8948091400190914101A091DC
:101130004201B091430178949B838C83F894809111
:101140003C0190913D01A0913E01B0913F01789406
:101150009D838E8360C0FC01558140E08681482BD1
:10116000738160E08481682B82810E943402F801DF
:101170008781813009F09DC080E00E94D20199C032
:10118000FC0182810E945202F8018381F2CF80919A
:101190007501F8019281892B84C090917501F80145
:1011A0008281809589237DC081E00E94150583E2BC
:1011B000898381E08A831B822EC081E00E947B04A8
:1011C00080EA95E2A6E2B0E080930D0190930E01D3
:1011D000A0930F01B09310016CC086E2898381E077
:1011E0008A831B82CE0101960E942E048091750194
:1011F0008F7B57C088E2898385E08A8383B180959D
:1012000081708B830E9485048C01222733271C83E5
:101210000D837E836F83CE0101960E942E0449C008
:1012200010921101809175018F7D3BC080EA898306
:101230008AEA8A8385EA8B83F80182818C83EE2493
:10124000E394F12CEC0EFD1E6E01F5E0CF0ED11CE7
:101250001E861D86F70181917F018E8722E0AE01F7
:10126000435F5F4FF801638186E791E00E94870C3E
:1012700086E791E00E94E10CEC14FD0449F710921E
:10128000BC0086E791E00E945D0D13C0FC018281E5
:10129000882321F080917501806803C080917501D9
:1012A0008F778093750105C088EF809363010E945A
:1012B0000E0D2E960FB6F894DEBF0FBECDBFDF9198
:1012C000CF911F910F91FF90EF90DF90CF900895F5
:1012D0001F93CF93DF93CDB7DEB72D970FB6F8945A
:1012E000DEBF0FBECDBF182F81E08D8721E0AE019C
:1012F000435F5F4F612F86E791E00E94870C86E78E
:1013000091E00E94E10C44E0612F86E791E00E94A9
:10131000C70C86E791E00E94E10C89E1898382E0B5
:101320008A8383E08B8386E791E00E94420D8C8361
:10133000189902C080688C83CE0101960E942E0409
:101340009091E8028091E9029813FACF83E08983B3
:101350008A8386E791E00E94420D8B8386E791E0C5
:101360000E94420D8C8386E791E00E94420D8D839E
:10137000CE0101960E942E041092BC0086E791E0F7
:101380000E945D0D2D960FB6F894DEBF0FBECDBF47
:10139000DF91CF911F910895FF920F931F93CF93E9
:1013A000DF93CDB7DEB72C970FB6F894DEBF0FBE34
:1013B000CDBF80E3898383E08A83809163010E94AB
:1013C000AE0D8C01809163018B831C830D83CE0154
:1013D00001960E942E040830110529F0FF24F39491
:1013E0000E32110508F0F12C80916301883F31F431
:1013F00082EE809363010E940E0D09C0809163010B
:10140000823E29F482E00E946809109263018F2DC8
:101410002C960FB6F894DEBF0FBECDBFDF91CF91F3
:101420001F910F91FF900895CF93DF93CDB7DEB753
:1014300068970FB6F894DEBF0FBECDBF109275014E
:101440008AEB8093890089E48093880088EA8093FE
:101450008B0089EE80938A000E94140C8AE08093AE
:10146000620212E305E0B5E07B2E80E4C82E8BE437
:10147000D82E8CE4E82EF12C96E1692E5524539455
:1014800020E7822E28E3922E29E3A22EB12C809110
:10149000750185FD0AC080916201813009F41BC18C
:1014A00080916201823009F416C10E94690288238A
:1014B00021F087E291E00E94E6078091750186FDA8
:1014C000E6CF0E94AC0B60936B0170936C0180932C
:1014D0006D0190936E0120916F01309170014091E8
:1014E000710150917201DC01CB01821B930BA40BA3
:1014F000B50B8093670190936801A0936901B09345
:101500006A0120916601222309F455C0209111013E
:101510002111E4C050C088E99BEAA2E0B0E08093CA
:10152000090190930A01A0930B01B0930C01109252
:1015300066010E94CC09382E80917501332019F084
:1015400085FFDBC01AC085FDE8C003C1809175012D
:101550008F7D80937501C0920101D0920201E092CB
:101560000301F092040186E089831A82CE0101967C
:101570000E942E040E944B0EECC0909165019F5F6B
:10158000909365013320B9F01092650114C0409129
:10159000090150910A0160910B0170910C01481BE7
:1015A000590B6A0B7B0B4093090150930A0160931E
:1015B0000B0170930C0180916401882371F14091BB
:1015C0000501509106016091070170910801809119
:1015D000670190916801A0916901B0916A01841737
:1015E0009507A607B70768F0109264010E94140CD3
:1015F0008092050190920601A0920701B092080125
:101600000CC0481B590B6A0B7B0B40930501509390
:10161000060160930701709308018091620188239D
:1016200009F448C08091750185FF7CC043C01D87C7
:101630001E86CE010D960E942E04212C312C029D77
:10164000F001039DF00D1124EC5BFE4F8081882397
:1016500069F069825A8280818B831082CE01019663
:101660000E942E04109262010E944B0E8FEF281AE6
:10167000380A85E02816310411F7C0920101D09292
:101680000201E0920301F092040114C08091010173
:1016900090910201A0910301B0910401841B950B6C
:1016A000A60BB70B8093010190930201A093030155
:1016B000B093040180916B0190916C01A0916D0138
:1016C000B0916E0180936F0190937001A0937101AE
:1016D000B0937201DCCE0E942705E7CE409109014C
:1016E00050910A0160910B0170910C0184179507CC
:1016F000A607B70708F44BCF0ECF90917501906203
:101700009093750160E080E00E94280E79821A8231
:10171000CE0101960E942E0430CF80916501823364
:10172000C0F014CF8091010190910201A0910301BA
:10173000B091040140916701509168016091690185
:1017400070916A01481759076A077B0708F49ECF12
:101750006ECF8091750111CF0F931F93509184002C
:1017600040918500F8940091EF021091F0022091D1
:10177000F1023091F202789480918400809185008A
:10178000841760F3942F80E0852B080F191F211D0B
:10179000311DB801C9011F910F91089584B1866070
:1017A00084B910928500109284009FEB909387007B
:1017B0008FEF8093860090938900809388009093A8
:1017C0008B0080938A0082EF809380008AE180936F
:1017D000810081E080936F00089517BC18BC81E000
:1017E00080936E0081EF84BD1092B3001092B4001C
:1017F000109270001092B6008093B00082E085BD18
:101800008093B10083E883BD16BC1092B20083E0E0
:1018100083BD239A8AB188668AB908955F9A579AD8
:1018200081E08093EB020895579A5F981092EB0243
:1018300008950E94CE0B0E94ED0B88E080937E00FD
:1018400083E480937C0010927B008FED80937A007C
:1018500087B1876087B93B9857985F9882E08093FB
:10186000C00086E08093C2001092C50080E480939F
:10187000C40088E98093C10081E18093B800109290
:10188000B9001092BD001092BA0085EC8093BC00A4
:1018900085B1816185B90C948301FC01EF5BFF4F39
:1018A0003081232F2F5F203409F420E0FC01E05C1D
:1018B000FF4F4081241751F0FC01E30FF11D6083BD
:1018C000FC01EF5BFF4F208381E0089580E00895E5
:1018D000DC01D1968C91D197282F2F5F203109F40C
:1018E00020E0D0969C91D097291779F090E0FC01E8
:1018F000EE0FFF1FE80FF91FEA0FFB1F4083518314
:101900006283D1962C9381E0089580E00895AF9290
:10191000BF92CF92DF92EF92FF920F931F93CF93DC
:10192000DF9300D0CDB7DEB78C01C12CD12CE12CD8
:101930007EEFC72EC6225A0118C0F50161915F01E2
:10194000C80129834A830E944D0C29814A81811153
:101950000CC0DF2C6E2DA601C8018C579F4F0E9432
:10196000680C85EE8093BC0005C0FA2CF41AF216C0
:1019700020F3EFCF0F900F90DF91CF911F910F9138
:10198000FF90EF90DF90CF90BF90AF900895542FCD
:1019900020E030E040E0262F2160352F642FA901A0
:1019A0008C579F4F0E94680C85EE8093BC00089571
:1019B000FC0120A92F5F203109F420E0FC0120ABBD
:1019C00008951F93CF93DF9300D0CDB7DEB7DC012E
:1019D000AA54BF4FD0969C91D097D1968C91D19715
:1019E0009817C1F3D0968C91D09790E0FC01EE0F40
:1019F000FF1FE80FF91FEA0FFB1F60817181128141
:101A0000CD0169837A830E94D80C69817A81812F04
:101A10000F900F90DF91CF911F910895CF93DF9397
:101A200000D0CDB7DEB7198281E58A83609163016A
:101A300022E0AE014F5F5F4F86E791E00E94870C86
:101A400086E791E00E94E10C88E99BEAA2E0B0E021
:101A50008093090190930A01A0930B01B0930C01AC
:101A600081E0809366010F900F90DF91CF910895F0
:101A7000FC01E05CFF4F80818F5F803409F480E0DF
:101A800080830895CF939C012E5B3F4FFC01EE575E
:101A9000FF4F4081DC01AD57BF4F8C91481749F093
:101AA0008081F901E80FF11DC081C9010E94380D44
:101AB00001C0CFEF8C2FCF910895CF92DF92EF929C
:101AC000FF920F931F93CF93DF93EC017C0180E48F
:101AD000E80EF11C8E010F5B1F4F03C0CE010E9468
:101AE000380DF7019081F80180819813F7CF04C079
:101AF000C6010E94380D0BC06E01F2E4CF0ED11C5E
:101B00007E0182E8E80EF11C8E010D571F4FF70190
:101B10009081F80180819813EBCF04C0C8010E9426
:101B2000D80C03C08E010A541F4FF80190A981A957
:101B30009813F4CF04C0CE010E94D80C02C0CC5739
:101B4000DF4F98A989A99813F6CFDF91CF911F9104
:101B50000F91FF90EF90DF90CF900895FF920F9339
:101B60001F93CF93DF9300D0CDB7DEB7F82E82E07E
:101B70008A8321E0AE014E5F5F4F6F2D86E791E0D3
:101B80000E94870C86E791E00E94E10C8130C1F54C
:101B900041E06F2D86E791E00E94C70C86E791E057
:101BA0000E94E10C8091BB0008E010E002C0000F31
:101BB000111F8A95E2F783E0898321E0AE014F5F30
:101BC0005F4F6F2D86E791E00E94870C86E791E0DA
:101BD0000E94E10C8130B1F441E06F2D86E791E085
:101BE0000E94C70C86E791E00E94E10C8091BB0047
:101BF000082B1092BC0086E791E00E945D0D02C0A8
:101C000000E010E0C8010F900F90DF91CF911F917D
:101C10000F91FF900895FC01ED57FF4F3081232F66
:101C20002F5F203609F420E0FC01EE57FF4F408182
:101C3000241741F0FC01E30FF11D62A3FC01ED57F5
:101C4000FF4F20838091C10080628093C10008957E
:101C5000CF93DF93D82FC62F262F332727FD30951C
:101C600037FF03C0319521953109622F2D2F33277E
:101C700027FD309537FF05C088279927821B930BD6
:101C800001C0C9010E945E04D093EE02C093ED0230
:101C9000DF91CF91089580916201811101C075C0DB
:101CA0008091750185FF88C08091750187FF89C08B
:101CB00083C08091620182FF06C0609161018091C2
:101CC0006101885242C08091620183FF06C0609129
:101CD000610180916101685238C081E00E94D201A7
:101CE00060916101809161010E94280E80917501CF
:101CF0008F7E809375012BC08091620181FF32C07D
:101D00008091620182FF08C0609161019091610140
:101D1000619588E2891B19C08091620183FF07C029
:101D2000909161018091610168E2691B0DC0809111
:101D300075018F7E8093750181E00E94D2016091D0
:101D4000610180916101619581950E94280E0E9438
:101D5000AC0B60935D0170935E0180935F01909383
:101D6000600108958091620182FF05C06091610168
:101D700080916101E9CF8091620183FF06C060918B
:101D80006101809161016195E0CF0E94AC0B60938D
:101D90005D0170935E0180935F019093600160E04C
:101DA00080E00E94280E81E00E94D201809175019E
:101DB0008F7E8093750108958091620180FD79CFB7
:101DC0009BCF08950E94190C78940E94140A1092D7
:101DD0008602109287021092E8021092E902109295
:101DE000B6011092B7011092F8011092F901109209
:101DF0002A0210922B0210925C0210925D02109245
:101E00005F0210925E0210926202109264020E94BF
:101E1000AC0B60936F01709370018093710190938C
:101E20007201109227011092280182E080931A011A
:101E300010921B010895EE0FFF1F0590F491E02D05
:061E40000994F894FFCFA5
:101E460005404B4C00C0E1E40098AB0200A02526FB
:0A1E56000001000201747E7A3300DF
:00000001FF
